{
  "_format": "hh-sol-artifact-1",
  "contractName": "VRF",
  "sourceName": "@chainlink/contracts/src/v0.6/VRF.sol",
  "abi": [
    {
      "inputs": [],
      "name": "PROOF_LENGTH",
      "outputs": [
        {
          "internalType": "uint256",
          "name": "",
          "type": "uint256"
        }
      ],
      "stateMutability": "view",
      "type": "function"
    }
  ],
  "bytecode": "0x6080604052348015600f57600080fd5b5060858061001e6000396000f3fe6080604052348015600f57600080fd5b506004361060285760003560e01c8063e911439c14602d575b600080fd5b60336049565b6040518082815260200191505060405180910390f35b6101a08156fea2646970667358221220d0a1f1af50ee828774e0dd1de37b9eb722c90299a261b6cff9bb518bf5ffde4764736f6c63430006060033",
  "linkReferences": {},
  "deployedLinkReferences": {}
}